{
  "_format": "hh-sol-artifact-1",
  "contractName": "Constructor",
  "sourceName": "contracts/Constructor.sol",
  "abi": [
    {
      "inputs": [
        {
          "internalType": "uint256",
          "name": "_amount",
          "type": "uint256"
        }
      ],
      "stateMutability": "nonpayable",
      "type": "constructor"
    },
    {
      "stateMutability": "payable",
      "type": "fallback"
    },
    {
      "inputs": [],
      "name": "amount",
      "outputs": [
        {
          "internalType": "uint256",
          "name": "",
          "type": "uint256"
        }
      ],
      "stateMutability": "view",
      "type": "function"
    },
    {
      "inputs": [
        {
          "internalType": "address payable",
          "name": "destination",
          "type": "address"
        }
      ],
      "name": "fundtransfer",
      "outputs": [],
      "stateMutability": "nonpayable",
      "type": "function"
    },
    {
      "inputs": [],
      "name": "payMe",
      "outputs": [
        {
          "internalType": "bool",
          "name": "success",
          "type": "bool"
        }
      ],
      "stateMutability": "payable",
      "type": "function"
    },
    {
      "stateMutability": "payable",
      "type": "receive"
    }
  ],
  "bytecode": "0x608060405234801561001057600080fd5b506040516102f43803806102f483398181016040528101906100329190610054565b80600081905550506100a7565b60008151905061004e81610090565b92915050565b60006020828403121561006a5761006961008b565b5b60006100788482850161003f565b91505092915050565b6000819050919050565b600080fd5b61009981610081565b81146100a457600080fd5b50565b61023e806100b66000396000f3fe6080604052600436106100385760003560e01c8063027e5d6114610041578063aa8c217c1461006a578063d997ccb3146100955761003f565b3661003f57005b005b34801561004d57600080fd5b5061006860048036038101906100639190610123565b6100b3565b005b34801561007657600080fd5b5061007f6100ff565b60405161008c9190610189565b60405180910390f35b61009d610105565b6040516100aa919061016e565b60405180910390f35b8073ffffffffffffffffffffffffffffffffffffffff166108fc6000549081150290604051600060405180830381858888f193505050501580156100fb573d6000803e3d6000fd5b5050565b60005481565b60006001905090565b60008135905061011d816101f1565b92915050565b600060208284031215610139576101386101ec565b5b60006101478482850161010e565b91505092915050565b610159816101b6565b82525050565b610168816101e2565b82525050565b60006020820190506101836000830184610150565b92915050565b600060208201905061019e600083018461015f565b92915050565b60006101af826101c2565b9050919050565b60008115159050919050565b600073ffffffffffffffffffffffffffffffffffffffff82169050919050565b6000819050919050565b600080fd5b6101fa816101a4565b811461020557600080fd5b5056fea2646970667358221220a9efee48608417e1827ff29845461ef3eb04971ff2d938f8434c8b6d3ca80c4364736f6c63430008070033",
  "linkReferences": {},
  "deployedLinkReferences": {}
}