{
  "_format": "hh-sol-artifact-1",
  "contractName": "Ethertransfer",
  "sourceName": "contracts/EtherTransfer.sol",
  "abi": [
    {
      "stateMutability": "payable",
      "type": "fallback"
    },
    {
      "inputs": [
        {
          "internalType": "address payable",
          "name": "destination",
          "type": "address"
        },
        {
          "internalType": "uint256",
          "name": "amount",
          "type": "uint256"
        }
      ],
      "name": "fundtransfer",
      "outputs": [],
      "stateMutability": "nonpayable",
      "type": "function"
    },
    {
      "inputs": [],
      "name": "payMe",
      "outputs": [
        {
          "internalType": "bool",
          "name": "success",
          "type": "bool"
        }
      ],
      "stateMutability": "payable",
      "type": "function"
    },
    {
      "stateMutability": "payable",
      "type": "receive"
    }
  ],
  "bytecode": "0x608060405234801561001057600080fd5b50610216806100206000396000f3fe60806040526004361061002d5760003560e01c8063494e4bc314610036578063d997ccb31461005f57610034565b3661003457005b005b34801561004257600080fd5b5061005d600480360381019061005891906100fb565b61007d565b005b6100676100c8565b604051610074919061014a565b60405180910390f35b8173ffffffffffffffffffffffffffffffffffffffff166108fc829081150290604051600060405180830381858888f193505050501580156100c3573d6000803e3d6000fd5b505050565b60006001905090565b6000813590506100e0816101b2565b92915050565b6000813590506100f5816101c9565b92915050565b60008060408385031215610112576101116101ad565b5b6000610120858286016100d1565b9250506020610131858286016100e6565b9150509250929050565b61014481610177565b82525050565b600060208201905061015f600083018461013b565b92915050565b600061017082610183565b9050919050565b60008115159050919050565b600073ffffffffffffffffffffffffffffffffffffffff82169050919050565b6000819050919050565b600080fd5b6101bb81610165565b81146101c657600080fd5b50565b6101d2816101a3565b81146101dd57600080fd5b5056fea264697066735822122054325a6629f2b24e341c8ce24bcc3ae7cf668501373cd0f85390ab8889de3a8464736f6c63430008070033",
  "linkReferences": {},
  "deployedLinkReferences": {}
}